:020000040800F2
:10000000681000205D0B0008590B0008590B000810
:10001000590B0008590B0008590B0008000000009C
:10002000000000000000000000000000590B000864
:10003000590B000800000000590B0008590B00087C
:10004000590B0008590B0008590B0008590B000800
:10005000590B0008590B0008590B0008590B0008F0
:10006000590B0008590B00080D090008590B00082E
:10007000590B0008590B0008590B0008590B0008D0
:10008000590B0008590B0008590B0008590B0008C0
:10009000590B0008590B0008590B0008590B0008B0
:1000A000590B0008590B0008590B0008590B0008A0
:1000B0005D090008590B0008590B0008590B00088E
:1000C000590B0008590B0008590B0008590B000880
:1000D000590B0008590B0008DD070008590B0008F0
:1000E000BD080008590B0008590B0008590B0008FF
:1000F000590B0008590B0008590B0008590B000850
:10010000590B0008590B0008590B0008590B00083F
:10011000590B0008590B0008590B0008590B00082F
:10012000590B0008590B0008590B0008590B00081F
:10013000590B0008590B0008590B0008590B00080F
:10014000590B0008590B0008590B0008590B0008FF
:10015000590B0008590B0008590B0008590B0008EF
:10016000590B0008590B0008590B0008590B0008DF
:10017000590B0008590B0008590B0008590B0008CF
:10018000590B0008590B000801F0FC0303F18043F0
:1001900003F59C3301F0030110B489009C680F2221
:1001A0008A4024EA02029A609A685DF8044B88400B
:1001B00002439A60704700BF494B4948996A9A6860
:1001C0009142ACBF9A689A6A1A64196A9A68914215
:1001D000ACBF8268026A5A64196B9A6840489142BF
:1001E000ACBF8268026B9A64996A1A683C48914273
:1001F000ACBF0268826ADA64196A1A6838489142A8
:10020000ACBF0268026A1A65196B1A6834489142D9
:10021000ACBF0268026B5A65996A1A69304891420C
:10022000ACBF0269826A9A65196A1A692C489142C0
:10023000ACBF0269026ADA65196B1A6928489142F3
:10024000ACBF0269026B1A66D96ADA682448914227
:10025000B4BFC26AC2685A66596ADA6820489142D5
:10026000B4BF426AC2689A66596BDA681C48914208
:10027000B4BF426BC268DA66D96A5A6818489142BC
:10028000B4BFC26A42681A67596A5A6814489142F0
:10029000B4BF426A42685A67596B5A681048914223
:1002A000B4BF426B42689A67D96A5A690C48914256
:1002B000B4BFC26A4269DA67596A5A69084891420A
:1002C000B4BF426A4269C3F88020596B5A69044836
:1002D0009142B4BF426B4269C3F88420704700BFAB
:1002E000100000202DE9F0078A4E8B4D8B4BDFF874
:1002F00034C28B4F002131600A4671602960696009
:10030000D0008418910003EB840403EB0108D4F8B7
:100310005090C8F88890D4F84C90D4F84480C145E7
:10032000CCBFD4F84C90D4F8449000EB02085C1891
:1003300003EB8808C4F89090D4F890A0D8F85C90AB
:10034000CA45CCBFD4F89090D8F85C905C1800EB0C
:10035000020803EB8808C4F89090D4F890A0D8F86D
:100360005490CA45CCBFD4F89090D8F854905C18FB
:1003700000EB020803EB8808C4F89090D4F890A032
:10038000D8F84090CA45CCBFD4F89090D8F84090A7
:100390005C1800EB020803EB8808C4F89090D4F8CE
:1003A00090A0D8F86090CA45CCBFD4F89090D8F807
:1003B0006090841803EB010803EB8404C8F8909064
:1003C000D4F84890D4F85880C145CCBFD4F84890B0
:1003D000D4F8589003EB0108841803EB8404C8F8A0
:1003E0009890D4F84890D4F85880C14500EB0208A2
:1003F000CCBFD4F84890D4F8589003EB88085C1828
:10040000C4F8A090D4F8A0A0D8F85090CA45CCBFAA
:10041000D4F8A090D8F85090841803EB010803EBAF
:100420008404C8F8A090D4F84090D4F84480C14522
:10043000CCBFD4F84090D4F8449000EB02085C188C
:1004400003EB8808C4F8A890D4F8A8A0D8F85C906A
:10045000CA45CCBFD4F8A890D8F85C905C1800EBE3
:10046000020803EB8808C4F8A890D4F8A8A0D8F82C
:100470006090CA45CCBFD4F8A880D8F860805C18DA
:10048000104403EB8000C4F8A880D0F84C80446D81
:100490001944A045CCBFC06C406DC1F8B000D1F884
:1004A0008840D1F89080D1F8980004EB480400EB24
:1004B0004000204445F82200D1F8A080D1F8A8409F
:1004C000D1F8B00008EB480804EB440408EB4404FE
:1004D00000EBC000204446F82200D1F88880D1F813
:1004E0009000D1F89840404420444CF82200D1F8C4
:1004F000A080D1F8A840D1F8B00008EB0401014475
:1005000047F822100132022A7FF4FAAEBDE8F00764
:10051000704700BF5C080020440800201000002045
:100520004C08002054080020534B1A6870B5002A6C
:1005300048D1524CD4F8C000D4F8B8104F4A4E4DB0
:100540000144C4F8C0105B681BB14D4B59680029C9
:1005500055D1D4F8C410D4F8BC20484B0A44C4F890
:10056000C420D4F8C020002AD3F8C02072DBFE2AB1
:10057000C8BFFE224348C8BFC3F8C020FE2100F018
:1005800037FED4F8C0103F48C1F1FE0100F032FE42
:10059000D4F8C420394B002AD3F8C42047DBFE2A04
:1005A000C8BFFE223748C8BFC3F8C420FE2100F0F0
:1005B00025FED4F8C4103348C1F1FE01BDE87040F7
:1005C00000F01ABE2E4A2D4C11680029B2D02E48D8
:1005D000A16906681D682D4806FB01F191FBF5F144
:1005E000C4F8B810D4F8B810A56B0668106806FBFC
:1005F00005F292FBF0F20A44C4F8B8209AE72248C8
:10060000D16946686D68214806FB01F191FBF5F15F
:10061000C2F8BC10D2F8BC10D56B4668586806FB0F
:1006200005F393FBF0F30B44C2F8BC3091E7FE32C4
:10063000B8BF6FF0FD021348B8BFC3F8C420FE2155
:1006400000F0DAFDD4F8C4100E48FE31BDE8704069
:1006500000F0D4BDFE32B8BF6FF0FD020948B8BF4C
:10066000C3F8C020FE2100F0C5FDD4F8C010054835
:10067000FE3100F0BDFD8BE7540800201000002083
:100680004C08002000080040440800205C080020BE
:10069000F8B5514C00F0C2FD00F020FE00F042FF22
:1006A00000F0EAFD00F0F6FE00F0C2FE00237F211C
:1006B0000222C4F8C8301D4684F8CC10C4F8D020FB
:1006C000C4F8D8302746C4F8D4302646D4F8DC30F5
:1006D000012BFBD1C6F8DC503560B5603561B369DC
:1006E0000A2B48DCB3690A3354DBB369002BB369C6
:1006F0006BDD3361B369C3F10A0333602562A56220
:100700002563A36B0A2B3FDCBB6B0A333FDBBB6B60
:10071000002BBB6B53DD3B63BB6BC3F10A033B6236
:100720006560E5606561E3690A2B2ADCFB690A33D1
:1007300036DBFB69002BFB693BDD7B61FB69C3F1A9
:100740000A037B606562E5626563E36B0A2B15DC77
:10075000FB6B0A3321DBFB6B002BFB6B23DD7B6325
:10076000FB6BC3F10A037B62FFF726FDFFF7BAFDBF
:10077000FFF7DAFEAAE70A233361BFE70A237B63A8
:10078000F2E70A237B61DDE70A233B63C8E70A231C
:10079000BB62C5E70A23B360B0E70A23FB62E3E765
:1007A0000A23FB60CEE75B42FB62FB6B0A337B6292
:1007B000DAE75B42FB60FB690A337B60C2E75B42BE
:1007C000BB62BB6B0A333B62AAE75B42B360B369AF
:1007D0000A33336092E700BF1000002010B53448A0
:1007E00040F2255100F08AF9012800D010BD3048B0
:1007F00000F062F92F4BC0B283F8E00093F8E020DC
:1008000093F8CC1091421FD0D3F8D010D3F8E40065
:10081000284A49004C1C844234D0D2F8E40002310A
:1008200081423AD0D2F8E41031BBD3F8E420214B16
:100830000B2A13D01E4840F2255100F085F91E4BBB
:100840004022C3F8842110BDD3F8E420002ADBD174
:10085000D3F8E4200132C3F8E420E6E7D3F8E82037
:100860005200C3F8F020D3F8EC1000224900C3F87E
:10087000F410C3F8E420DDE7D2F8E4100131C2F847
:10088000E410D2E792F8E01049B2C2F8E810D2F8CA
:10089000E4100131C2F8E410C7E792F8E01049B261
:1008A000C2F8EC10D2F8E4100131C2F8E410BCE751
:1008B000004400401000002000E100E00F4B1A68E7
:1008C000520519D55B695B0516D50D4B1B6913F4F1
:1008D000006F0C4BD3F8D82014BF013202F1FF3265
:1008E000C3F8D820054B084A58694FF4807140F48A
:1008F00080605861C2F88411704700BF003C01401D
:10090000000802401000002000E100E00F4B1A68D0
:10091000D20619D55B69DB0616D50D4B1B6913F0A2
:10092000200F0C4BD3F8D42014BF013202F1FF3258
:10093000C3F8D420054B084A58694FF4806140F051
:1009400010005861C2F88011704700BF003C0140A0
:10095000000402401000002000E100E01C4B0121D7
:1009600010B5C3F8DC10D3F8F000D3F8D420821A05
:100970009A61D3F8F400D3F8D820821ADA61D869E2
:10098000D3F8FC20821ADA639869D3F8F820821A27
:100990009A63DA69C3F8FC209A69C3F8F820D3F89F
:1009A000D420D2B283F80021D3F8D8400022E4B298
:1009B0004FF0804083F80141C3F8D420C3F8D82019
:1009C00000F028FC034B4FF08052C3F8802110BD8B
:1009D0001000002000E100E0F0B50D46018AEF882C
:1009E0002E89AB88AA8989B2044621F44051394343
:1009F00068892182A189334389B2034321F4B0512C
:100A000021F00C019BB20B43A381A38A9BB223F478
:100A10004073134385B0A382684600F0CFF81D4BA6
:100A20009C4229D003F580639C4225D0029BA28979
:100A30002968A08912B2002A03EB8303B4BF4900DE
:100A4000890003EB8303B3FBF1F2134900B2A1FB6E
:100A500002535B096425002803FB15224FEA0313A8
:100A60000CDB12013232A1FB0251C1F343110B43E3
:100A70009BB2238105B0F0BD039BD8E7D200323290
:100A8000A1FB0201C1F342110B439BB2238105B0CC
:100A9000F0BD00BF001001401F85EB51838929B9CB
:100AA00023F400531B041B0C838170479BB243F457
:100AB00000538381704700BF8088C0F308007047EF
:100AC00001F01F0310B4C1F342110124A14204FA42
:100AD00003F310D002290CBF1030143004682AB977
:100AE00024EA030303605DF8044B7047234303606B
:100AF0005DF8044B70470C30F0E700BF10B4C1F351
:100B00004213012401F01F02A34204FA02F217D09B
:100B1000022B0CBF038A838A9BB21340028892B2D5
:100B200053B1090A012303FA01F111420CBF00205D
:100B300001205DF8044B704718465DF8044B704780
:100B400083899BB21340E9E7090A012303FA01F103
:100B5000C94389B201807047FEE700BF08B511485C
:100B6000114B984207D2C243134423F003020432CC
:100B70000E4900F019FD0E480E494FF00002884260
:100B8000B8BF40F8042BFFF6FAAFDFF82C0001687D
:100B900041F47001016000F0F1F8BDE80840FFF792
:100BA00077BD00BF0000002010000020DC16000808
:100BB000100000206408002088ED00E01F4A9368C0
:100BC00003F00C03042B10B41BD0082B1CD01C4BBF
:100BD00003601A491B4A8C68C4F30314145DE34094
:100BE00043608C68C4F38224145D23FA04F48460A7
:100BF00089685DF8044BC1F34231525CD340C36055
:100C00007047114B0360E4E754685168526863020F
:100C10004CBF0D4B0A4B01F03F01C2F38812B3FBEE
:100C2000F1F303FB02F3054A5268C2F301420132B9
:100C30005200B3FBF2F30360CBE700BF0038024081
:100C40000024F4000000002040787D01044B1A6B62
:100C500019B922EA000018637047104318637047FF
:100C600000380240044B1A6C19B922EA00001864DB
:100C7000704710431864704700380240044B5A6CA8
:100C800019B922EA0000586470471043586470474D
:100C90000038024000222DE9F00713460E680127B4
:100CA0004FF0030804E00133102B02F102022ED0B2
:100CB00007FA03F404EA0605A542F4D1D0F800903F
:100CC00091F804C008FA02F4E44304EA0909C0F800
:100CD0000090D0F800900CFA02FA0CF1FF3C5FFA99
:100CE0008CFC4AEA0909BCF1010FC0F8009011D947
:100CF000C56891F807C02C40C460C5680CFA02F4BE
:100D000001332C43102BC46002F10202D0D1BDE8A4
:100D1000F0077047D0F808A091F8059091F806C048
:100D200004EA0A0AC0F808A0D0F808A009FA02F9F3
:100D300049EA0A09C0F80890D0F8049029EA0505A4
:100D4000456045680CFA03FC1FFA8CFC4CEA05056B
:100D50004560CDE7CB0800EB830001F0070110B43C
:100D60008900046A0F238B4024EA03030362036AA9
:100D70005DF8044B8A40134303627047284A294BAD
:100D8000D2F88800284940F4700030B4C2F88800D6
:100D90001A68264D264C002042F001021A60986025
:100DA0001A6822F0847222F480321A605D601A6838
:100DB00022F480221A60D8601A6C42F080521A64C1
:100DC0000A6842F480420A609A689A609A6842F41B
:100DD00000429A609A6842F4A0529A605C601A6875
:100DE00042F080721A6019460B680E4A9B01FBD5CF
:100DF000104B40F205611960936823F00303936080
:100E0000936843F002039360936803F00C03082B8C
:100E1000FAD1034B4FF000629A6030BC704700BFBC
:100E200000ED00E000380240007000401030002467
:100E300010540007003C0240837970B42BB31D4B63
:100E400001681E6802794579CC4326401E605E68C1
:100E500002F1804202F59E3234405C601468214306
:100E6000116002689868D14308409860D868102DD6
:100E700001EA0001D96014D005F1804303F59E33E7
:100E800070BC19680A431A6070470379016803F15E
:100E9000804303F59E3370BC1A6822EA01021A608F
:100EA0007047996811439960D9680A43DA6070BC49
:100EB000704700BF003C0140C378F0B463B90378C9
:100EC000194A5909203103F01F03012000FA03F3E6
:100ED00042F82130F0BC7047144B4778DA688578C7
:100EE00003781149D243C2F30222C2F104040F264F
:100EF000E4B207FA04F446FA02F2E4B22A402243CA
:100F000003F1604303F561431201D2B283F8002379
:100F10000378012003F01F025B0900FA02F241F896
:100F20002320F0BC704700BF00E100E000ED00E0CE
:100F3000234A0388904270B49BB212D002F58062BB
:100F400090420ED0B0F1804F0BD0A2F5803290428B
:100F500007D002F58062904203D002F58062904291
:100F600003D14A8823F070031343164A90421ED0DF
:100F700002F5806290421AD00E894D680C8823F4E5
:100F8000407302F56C429BB2334390420380C562CA
:100F9000048506D00C4B984203D00123838270BC99
:100FA00070478B7A03860123838270BC704703806D
:100FB0000B884A68C26203850123838270BC704734
:100FC000000001400010004000040140038829B9DE
:100FD00023F001031B041B0C038070479BB243F0FA
:100FE00001030380704700BFF0B4048CB1F802C065
:100FF0008F890E881B4D24F001042404240C0484E2
:10100000028C8488038B22F0020223F07303120403
:101010004CEA07071B04120CBFB21B0CA84247EA9C
:101020000202A4B243EA06030AD005F58065A8428D
:1010300006D0896884800383F0BC416302847047D2
:10104000B1F80EC04F8A0D8A8E8822F0080242EA5B
:101050000C023D4324F4407422F00402ADB232434A
:101060002C43E6E700000140F0B4048CB1F80CC05A
:101070004F880E881F4D24F010042404240C04848F
:10108000028C8488038B22F02002120423F4E643AE
:10109000120C1B0442EA0C121B0C42EA071243EA30
:1010A0000623A84292B2A4B29BB20AD005F580658D
:1010B000A84206D0896884800383F0BC81630284DF
:1010C0007047CD89B1F810C08F884E8A22F0800217
:1010D00092B242EA051224F440644FF6BF751540FF
:1010E00044EA8C0445EA071244EA860492B2A4B2A8
:1010F000E0E700BF00000140F0B4048CB1F80CC080
:101100004F880E881E4D24F480742404240C04841B
:10111000028C8488838B22F400721204120C23F058
:10112000730342EA0C221B0442EA07221B0CA8426A
:1011300092B2A4B243EA06030AD005F58065A8423C
:1011400006D0896884808383F0BCC16302847047C1
:10115000CD89B1F810C08F884E8A22F4006292B215
:1011600042EA052224F440544FF6FF35154044EA84
:101170000C1445EA072244EA061492B2A4B2E0E74E
:1011800000000140F0B4048CB1F80CC04F880E8808
:10119000164D24F480542404240C0484028C848886
:1011A000838B22F40052120423F4E643120C1B0436
:1011B00042EA0C321B0C42EA073243EA0623A842F9
:1011C00092B2A4B29BB20AD005F58065A84206D0BF
:1011D000896884808383F0BC0164028470470D8A2F
:1011E00024F4804444EA8514A4B2F1E700000140ED
:1011F0004163704781637047C16370470164704702
:1012000083899BB21AB923EA01018181704719438E
:1012100081817047C94389B201827047012008B5B6
:101220000146FFF713FD02200121FFF70FFD042007
:101230000121FFF70BFD08200121FFF707FD10201A
:101240000121FFF703FD20200121FFF7FFFC4FF4F0
:1012500080400121FFF712FD4FF400300121FFF71C
:1012600001FD04200121FFF7FDFC01200146BDE83E
:101270000840FFF7F7BC00BF70B5174E86B00024DA
:1012800002A94FF4164230460C2301250292ADF814
:101290001230ADF81440ADF81040ADF80E40ADF886
:1012A0000C40FFF799FB0223262201A88DF8053098
:1012B0008DF804208DF806408DF80750FFF7FCFDEF
:1012C00030462A4640F22551FFF7FAFB30462946C0
:1012D000FFF7E4FB06B070BD004400402DE9F04785
:1012E000504EDFF84491DFF844A18CB00024032570
:1012F000012730464FF4404369464FF002080093FF
:101300008DF804708DF805508DF807408DF8064073
:10131000FFF7C0FC304640F6034302A902938DF864
:101320000C408DF80D508DF80F708DF80E40FFF7C2
:10133000B1FC4FF4707330464246062104938DF899
:1013400017408DF816408DF815508DF81480FFF772
:1013500001FD304642460721FFF7FCFC304642467D
:101360000821FFF7F7FC424630460921FFF7F2FC5F
:10137000304604A9FFF78EFC0C234146484607225D
:1013800006938DF81C808DF81D508DF81F708DF818
:101390001E40FFF7DFFC072248462946FFF7DAFC2C
:1013A000484606A9FFF776FC50460AA94FF4806329
:1013B0000A938DF82C408DF82D508DF82F708DF8F4
:1013C0002E40FFF767FC304608A9102308938DF8DC
:1013D00024408DF825508DF827708DF82640FFF7B2
:1013E00059FC304608A9202308938DF824408DF835
:1013F00025508DF827708DF82640FFF74BFC4FF4F1
:10140000006350460AA98DF82C408DF82D508DF8B8
:101410002F708DF82E400A93FFF73CFC0CB0BDE80E
:10142000F08700BF000402400000024000080240B4
:1014300030B587B042F2CF02002502A920234FF039
:1014400080400124ADF808200393ADF81050ADF8AA
:101450000A50FFF76DFD1C2301A88DF804308DF8AC
:1014600006508DF807408DF80540FFF725FD214611
:1014700022464FF08040FFF7C3FE054B4FF08052ED
:1014800021461A604FF08040FFF7A0FD07B030BD45
:1014900000E100E070B5102286B001240C230DEBB2
:1014A000020000254FF480668DF815308DF80D3060
:1014B000029204968DF816408DF80E408DF8145067
:1014C0008DF80C50FFF7B8FC02A8FFF7B5FC02201E
:1014D0000A21FEF759FE20460421FEF755FE0A2197
:1014E0002822022301A88DF800208DF802308DF803
:1014F00004108DF807408DF805508DF806408DF8E2
:1015000003408DF80150FFF7D7FC6846FFF7D4FC85
:10151000034B4FF480725A601E6006B070BD00BF6E
:1015200000E100E070B51F4C88B063220025204622
:10153000FF236946ADF8002001930126ADF808505D
:10154000ADF80250FFF7F4FC6023204603A9ADF884
:101550000C30ADF81850ADF80E60FFF745FD204691
:1015600003A9FFF781FD204603A9FFF7C5FD20462B
:1015700003A9FFF707FE20463146FFF727FD204667
:101580002946FFF735FE20462946FFF733FE204661
:101590002946FFF731FE20462946FFF72FFE08B007
:1015A00070BD00BF00080040844641EA000313F00C
:1015B00003036DD1403A41D351F8043B40F8043B5A
:1015C00051F8043B40F8043B51F8043B40F8043B1D
:1015D00051F8043B40F8043B51F8043B40F8043B0D
:1015E00051F8043B40F8043B51F8043B40F8043BFD
:1015F00051F8043B40F8043B51F8043B40F8043BED
:1016000051F8043B40F8043B51F8043B40F8043BDC
:1016100051F8043B40F8043B51F8043B40F8043BCC
:1016200051F8043B40F8043B51F8043B40F8043BBC
:1016300051F8043B40F8043B403ABDD2303211D35C
:1016400051F8043B40F8043B51F8043B40F8043B9C
:1016500051F8043B40F8043B51F8043B40F8043B8C
:10166000103AEDD20C3205D351F8043B40F8043B5C
:10167000043AF9D2043208D0D2071CBF11F8013B5A
:1016800000F8013B01D30B8803806046704700BF20
:10169000082A13D38B078DD010F003038AD0C3F12F
:1016A0000403D21ADB071CBF11F8013B00F8013B11
:1016B00080D331F8023B20F8023B7BE7043AD9D3D0
:1016C000013A11F8013B00F8013BF9D20B780370A5
:0C16D0004B7843708B7883706046704745
:1016DC0000000000010203040102030406070809CC
:0400000508000000EF
:00000001FF
