S011000041746D6567614E52462E73726563DE
S113000019C094C032C031C030C02FC02EC02DC022
S11300102CC02BC02AC029C028C027C026C025C098
S113002024C023C057C021C020C01FC01EC01DC093
S11300301CC01BC011241FBECFEFD4E0DEBFCDBF58
S113004011E0A0E0B1E0E2ECF3E002C005900D9213
S1130050AA30B107D9F711E0AAE0B1E001C01D92BE
S1130060A632B107E1F77ED0AAC1CACF519A5098FF
S11300702BB123602BB99093C5008093C40086E014
S11300808093C20088E98093C1000895CF93DF93E1
S113009010920E0120910E012B30B8F4E0ECF0E048
S11300A0C6ECD0E0208125FFFDCF20910E01DC01BC
S11300B0A20FB11D2C91288320910E012F5F209354
S11300C00E0120910E012B3068F310920E01DF9186
S11300D0CF9108951F920F920FB60F9211248F9310
S11300E09F93EF93FF9390910F018091C600EBE1F2
S11300F0F1E0E90FF11D808380910F018F5F809300
S11301000F0180910F018B3041F481E090E09093D6
S11301100D0180930C0110920F01FF91EF919F91BB
S11301208F910F900FBE0F901F9018951F920F92F2
S11301300FB60F9211248F939F9381E090E09093D8
S11301400B0180930A019F918F910F900FBE0F9026
S11301501F9018955298E9E6F0E0808182608083D0
S1130160E89A0895A6D0C2D0F5DF89E190E07EDF59
S11301707894C0E1D1E080910C0190910D0181301F
S1130180910529F4AED010920D0110920C018091CA
S11301900A0190910B018130910569F7FDD0CE01E0
S11301A075DF10920B0110920A01E5CF459881EE9C
S11301B08EBD0DB407FEFDCF459A0895459882EE95
S11301C08EBD0DB407FEFDCF459A08958EBD0DB4C6
S11301D007FEFDCF8EB50895CF93DF93D62F4598B4
S11301E0F5DFC82F8D2FF2DF459A8C2FDF91CF9149
S11301F008954598EBDF80E0E9DF459A0895EF9292
S1130200FF920F931F93CF93DF93162FE72E042FA4
S11302104598DCDFF82E002349F0C12FDE2D10E0D5
S113022080E0D4DF89931F5F1017D1F7459A8F2D93
S1130230DF91CF911F910F91FF90EF900895FF925E
S11302400F931F93CF93DF938B01D42F4598BEDF79
S1130250F82E25E32A95F1F70000DD2371F0C8019B
S11302600196D150FC01ED0FF11DEF01F8018191D0
S11302708F01ACDF0C171D07C9F7459A8F2DDF914D
S1130280CF911F910F91FF900895CF93DF93EC01CD
S1130290449880E26AE3A0DF89DF80EABE014BE094
S11302A0CEDF449A85E38A95F1F70000DF91CF9180
S11302B0089584B18C6284B9249887B1806387B926
S11302C08CB583658CBD459A44980895449876DF2F
S11302D080E26BE381DF449A85E38A95F1F70000BD
S11302E008958BE191E0D1DFF1DF0895CF93DF939F
S11302F080E268E371DF81E26FE36EDF82E26FE345
S11303006BDF83E263E068DF84E26FE465DF85E24C
S11303106FE062DF86E26EE05FDF87E26EE05CDF63
S113032088E260E059DF87E361E156DF89E260E05B
S113033053DF81E36BE050DF82E36BE04DDF83E367
S11303406BE04ADF84E36BE047DF85E36BE044DF87
S113035086E36BE041DF86E26EE03EDF8CE360E043
S11303603BDF80E268E338DF29DF20DF8BE260E0F7
S113037071E045E064DF449A4498C5E0D1E080E34D
S1130380BE0145E05CDF8AE2BE0145E058DF449AE5
S11303909DDFDF91CF910895449885E38A95F1F725
S11303A0000087E026DF86FF08C081E660E171E097
S11303B04BE025DF87E260E40FDF449A0895F89468
S10503C0FFCF69
S10D03C2A2A2A2A2A22A2A2A2A2A31
S9030000FC
