:100000000C9434000C948F000C9446000C94460021
:100010000C9446000C9446000C9446000C94460048
:100020000C9446000C9446000C9446000C94460038
:100030000C9446000C9446000C9446000C94460028
:100040000C9446000C9446000C94B2000C944600AC
:100050000C9446000C9446000C9446000C94460008
:100060000C9446000C94460011241FBECFEFD8E03C
:10007000DEBFCDBF21E0A0E0B1E001C01D92A53000
:10008000B207E1F70E9450000C94DF000C940000CE
:10009000E0ECF0E0908195FFFDCF8093C6000895DD
:1000A0000E94CB0089E190E00E94D4000E94C5002C
:1000B000789401E01FEFCFEFD0E080910301813011
:1000C000E1F780910001909101018F3F910531F09E
:1000D0002CF0D0930101C09300010BC0809100016E
:1000E0009091010181309F4F24F4109301010093FE
:1000F0000001809100019091010199230CF4019677
:100100009595879580930201809102010E94480095
:10011000109201011092000110920301CECF1F92A4
:100120000F920FB60F9211248F939F934B9B0AC08F
:1001300080910001909101010196909301018093BB
:10014000000109C0809100019091010101979093F5
:100150000101809300019F918F910F900FBE0F902E
:100160001F9018951F920F920FB60F9211248F9324
:100170008091C6008093040181E0809303018F91F8
:100180000F900FBE0F901F90189582E0809369002A
:1001900081E08DBB089582E08AB98BB185608BB90F
:1001A0008FEF87B918B808959093C5008093C40065
:1001B00086E08093C20088E98093C1000895F89496
:0201C000FFCF6F
:00000001FF
